{
  "_format": "hh-sol-artifact-1",
  "contractName": "taskcontract",
  "sourceName": "contracts/taskcontract.sol",
  "abi": [
    {
      "anonymous": false,
      "inputs": [
        {
          "indexed": false,
          "internalType": "address",
          "name": "recipient",
          "type": "address"
        },
        {
          "indexed": false,
          "internalType": "uint256",
          "name": "taskId",
          "type": "uint256"
        }
      ],
      "name": "AddTask",
      "type": "event"
    },
    {
      "anonymous": false,
      "inputs": [
        {
          "indexed": false,
          "internalType": "uint256",
          "name": "taskId",
          "type": "uint256"
        },
        {
          "indexed": false,
          "internalType": "bool",
          "name": "isDeleted",
          "type": "bool"
        }
      ],
      "name": "DeleteTask",
      "type": "event"
    },
    {
      "inputs": [
        {
          "internalType": "string",
          "name": "tasktext",
          "type": "string"
        },
        {
          "internalType": "bool",
          "name": "isDeleted",
          "type": "bool"
        }
      ],
      "name": "addTask",
      "outputs": [],
      "stateMutability": "nonpayable",
      "type": "function"
    },
    {
      "inputs": [
        {
          "internalType": "uint256",
          "name": "taskId",
          "type": "uint256"
        },
        {
          "internalType": "bool",
          "name": "isDeleted",
          "type": "bool"
        }
      ],
      "name": "deleteTask",
      "outputs": [],
      "stateMutability": "nonpayable",
      "type": "function"
    },
    {
      "inputs": [],
      "name": "getMyTask",
      "outputs": [
        {
          "components": [
            {
              "internalType": "uint256",
              "name": "id",
              "type": "uint256"
            },
            {
              "internalType": "string",
              "name": "taskText",
              "type": "string"
            },
            {
              "internalType": "bool",
              "name": "isDeleted",
              "type": "bool"
            }
          ],
          "internalType": "struct taskcontract.Task[]",
          "name": "",
          "type": "tuple[]"
        }
      ],
      "stateMutability": "view",
      "type": "function"
    }
  ],
  "bytecode": "0x608060405234801561001057600080fd5b50610e59806100206000396000f3fe608060405234801561001057600080fd5b50600436106100415760003560e01c806320df458114610046578063aaba290714610062578063e08e86b81461007e575b600080fd5b610060600480360381019061005b919061074b565b61009c565b005b61007c600480360381019061007791906107dd565b6101bf565b005b6100866102a0565b60405161009391906109cc565b60405180910390f35b60008080549050905060006040518060600160405280838152602001858152602001841515815250908060018154018082558091505060019003906000526020600020906003020160009091909190915060008201518160000155602082015181600101908161010c9190610bfa565b5060408201518160020160006101000a81548160ff0219169083151502179055505050336001600083815260200190815260200160002060006101000a81548173ffffffffffffffffffffffffffffffffffffffff021916908373ffffffffffffffffffffffffffffffffffffffff1602179055507f1f54e1ba1832d428fbd7e7792beaf62b1fc5a382c207ffd614209c1413e94fda33826040516101b2929190610d1c565b60405180910390a1505050565b3373ffffffffffffffffffffffffffffffffffffffff166001600084815260200190815260200160002060009054906101000a900473ffffffffffffffffffffffffffffffffffffffff1673ffffffffffffffffffffffffffffffffffffffff160361029c57806000838154811061023a57610239610d45565b5b906000526020600020906003020160020160006101000a81548160ff0219169083151502179055507ff88a35c3d2016c409a46570b994a17b408dbc83c14a03f521512d50b85386d068282604051610293929190610d83565b60405180910390a15b5050565b60606000808054905067ffffffffffffffff8111156102c2576102c16105e8565b5b6040519080825280602002602001820160405280156102fb57816020015b6102e8610596565b8152602001906001900390816102e05790505b5090506000805b6000805490508110156104dc573373ffffffffffffffffffffffffffffffffffffffff166001600083815260200190815260200160002060009054906101000a900473ffffffffffffffffffffffffffffffffffffffff1673ffffffffffffffffffffffffffffffffffffffff161480156103b3575060001515600082815481106103905761038f610d45565b5b906000526020600020906003020160020160009054906101000a900460ff161515145b156104c957600081815481106103cc576103cb610d45565b5b9060005260206000209060030201604051806060016040529081600082015481526020016001820180546103ff90610a1d565b80601f016020809104026020016040519081016040528092919081815260200182805461042b90610a1d565b80156104785780601f1061044d57610100808354040283529160200191610478565b820191906000526020600020905b81548152906001019060200180831161045b57829003601f168201915b505050505081526020016002820160009054906101000a900460ff1615151515815250508383815181106104af576104ae610d45565b5b602002602001018190525081806104c590610ddb565b9250505b80806104d490610ddb565b915050610302565b5060008167ffffffffffffffff8111156104f9576104f86105e8565b5b60405190808252806020026020018201604052801561053257816020015b61051f610596565b8152602001906001900390816105175790505b50905060005b8281101561058c5783818151811061055357610552610d45565b5b602002602001015182828151811061056e5761056d610d45565b5b6020026020010181905250808061058490610ddb565b915050610538565b5080935050505090565b604051806060016040528060008152602001606081526020016000151581525090565b6000604051905090565b600080fd5b600080fd5b600080fd5b600080fd5b6000601f19601f8301169050919050565b7f4e487b7100000000000000000000000000000000000000000000000000000000600052604160045260246000fd5b610620826105d7565b810181811067ffffffffffffffff8211171561063f5761063e6105e8565b5b80604052505050565b60006106526105b9565b905061065e8282610617565b919050565b600067ffffffffffffffff82111561067e5761067d6105e8565b5b610687826105d7565b9050602081019050919050565b82818337600083830152505050565b60006106b66106b184610663565b610648565b9050828152602081018484840111156106d2576106d16105d2565b5b6106dd848285610694565b509392505050565b600082601f8301126106fa576106f96105cd565b5b813561070a8482602086016106a3565b91505092915050565b60008115159050919050565b61072881610713565b811461073357600080fd5b50565b6000813590506107458161071f565b92915050565b60008060408385031215610762576107616105c3565b5b600083013567ffffffffffffffff8111156107805761077f6105c8565b5b61078c858286016106e5565b925050602061079d85828601610736565b9150509250929050565b6000819050919050565b6107ba816107a7565b81146107c557600080fd5b50565b6000813590506107d7816107b1565b92915050565b600080604083850312156107f4576107f36105c3565b5b6000610802858286016107c8565b925050602061081385828601610736565b9150509250929050565b600081519050919050565b600082825260208201905092915050565b6000819050602082019050919050565b610852816107a7565b82525050565b600081519050919050565b600082825260208201905092915050565b60005b83811015610892578082015181840152602081019050610877565b60008484015250505050565b60006108a982610858565b6108b38185610863565b93506108c3818560208601610874565b6108cc816105d7565b840191505092915050565b6108e081610713565b82525050565b60006060830160008301516108fe6000860182610849565b5060208301518482036020860152610916828261089e565b915050604083015161092b60408601826108d7565b508091505092915050565b600061094283836108e6565b905092915050565b6000602082019050919050565b60006109628261081d565b61096c8185610828565b93508360208202850161097e85610839565b8060005b858110156109ba578484038952815161099b8582610936565b94506109a68361094a565b925060208a01995050600181019050610982565b50829750879550505050505092915050565b600060208201905081810360008301526109e68184610957565b905092915050565b7f4e487b7100000000000000000000000000000000000000000000000000000000600052602260045260246000fd5b60006002820490506001821680610a3557607f821691505b602082108103610a4857610a476109ee565b5b50919050565b60008190508160005260206000209050919050565b60006020601f8301049050919050565b600082821b905092915050565b600060088302610ab07fffffffffffffffffffffffffffffffffffffffffffffffffffffffffffffffff82610a73565b610aba8683610a73565b95508019841693508086168417925050509392505050565b6000819050919050565b6000610af7610af2610aed846107a7565b610ad2565b6107a7565b9050919050565b6000819050919050565b610b1183610adc565b610b25610b1d82610afe565b848454610a80565b825550505050565b600090565b610b3a610b2d565b610b45818484610b08565b505050565b5b81811015610b6957610b5e600082610b32565b600181019050610b4b565b5050565b601f821115610bae57610b7f81610a4e565b610b8884610a63565b81016020851015610b97578190505b610bab610ba385610a63565b830182610b4a565b50505b505050565b600082821c905092915050565b6000610bd160001984600802610bb3565b1980831691505092915050565b6000610bea8383610bc0565b9150826002028217905092915050565b610c0382610858565b67ffffffffffffffff811115610c1c57610c1b6105e8565b5b610c268254610a1d565b610c31828285610b6d565b600060209050601f831160018114610c645760008415610c52578287015190505b610c5c8582610bde565b865550610cc4565b601f198416610c7286610a4e565b60005b82811015610c9a57848901518255600182019150602085019450602081019050610c75565b86831015610cb75784890151610cb3601f891682610bc0565b8355505b6001600288020188555050505b505050505050565b600073ffffffffffffffffffffffffffffffffffffffff82169050919050565b6000610cf782610ccc565b9050919050565b610d0781610cec565b82525050565b610d16816107a7565b82525050565b6000604082019050610d316000830185610cfe565b610d3e6020830184610d0d565b9392505050565b7f4e487b7100000000000000000000000000000000000000000000000000000000600052603260045260246000fd5b610d7d81610713565b82525050565b6000604082019050610d986000830185610d0d565b610da56020830184610d74565b9392505050565b7f4e487b7100000000000000000000000000000000000000000000000000000000600052601160045260246000fd5b6000610de6826107a7565b91507fffffffffffffffffffffffffffffffffffffffffffffffffffffffffffffffff8203610e1857610e17610dac565b5b60018201905091905056fea2646970667358221220436c497ca6e56fea9cc8e3585ec5f25c9382a3e7f1df54ff64b1540d7676995764736f6c63430008110033",
  "linkReferences": {},
  "deployedLinkReferences": {}
}